:100000000C9434000C9446000C9446000C9446006A
:100010000C9446000C9446000C9446000C94460048
:100020000C9446000C9446000C9446000C94460038
:100030000C9446000C9446000C9446000C94460028
:100040000C9446000C9446000C9492000C944600CC
:100050000C9446000C9446000C9446000C94460008
:100060000C9446000C94460011241FBECFEFD8E03C
:10007000DEBFCDBF22E0A0E0B1E001C01D92AF31F4
:10008000B207E1F70E94D7000C94FD000C94000029
:10009000CF93DF93DC01E1ECF0E080818860808326
:1000A00055968C9155978823A1F020E0E0ECF0E084
:1000B00046EC50E0908195FFFDCFED01C20FD11DC0
:1000C0008981EA0188832F5F55968C91559728176F
:1000D00088F355961C92E1ECF0E08081877D808367
:1000E000DF91CF910895FC019589943148F4DF01A7
:1000F000A90FB11D11966C939F5F958B80E00895B9
:1001000081E008951092C50089E18093C400E2EC7B
:10011000F0E0808186608083E1ECF0E0808180699E
:10012000808308951F920F920FB60F9211242F9380
:100130003F934F935F936F937F938F939F93AF936F
:10014000BF93CF93EF93FF93E0ECF0E0808188239F
:10015000ECF7C091C6006C2F80EC91E00E94730018
:10016000813011F0CE3241F4E1ECF0E080818F7605
:10017000808381E080930001FF91EF91CF91BF9147
:10018000AF919F918F917F916F915F914F913F912F
:100190002F910F900FBE0F901F901895FC0190911A
:1001A0000101808189131092D50180E00895109299
:1001B000D501109217011092760183B7817F83BF1A
:1001C0000E948200559A549A5D9A5C987894C1EC8A
:1001D000D0E0809100018130E1F780EC91E00E9455
:1001E000CE0080EC91E00E9448001092D501109260
:0E01F0000001888180698883ECCFF894FFCFEE
:00000001FF
